:1000000012C017C016C015C014C013C012C011C052
:1000100010C00FC00EC00DC00CC00BC00AC009C07C
:1000200008C007C006C011241FBECFEDCDBF4ED003
:100030005FC0E6CF8C9A8D9A94989598B098C09AA4
:100040008E9ABA9A13BE83E080BF80B7806880BF63
:100050008EE786BF81E083BF089507C0E9EFF0E037
:100060003197F1F700C0000081508111F7CF08955A
:10007000CF93811102C0CFEF01C0CBE48C2FEDDF15
:100080009498959A8C2FE9DF9598949A8C2FE5DFB8
:1000900095989498CF91089591B321E030E0082E7F
:1000A00001C0220F0A94EAF7611104C020952923A8
:1000B00021BB0895922B91BB0895CF93C82F969A98
:1000C000CCDF8C2FCADF9698CF910895B3DF80E004
:1000D000CFDF89E1F2DF81E0CBDF82E0BEDF86B7F0
:1000E0008F5F86BFB09902C0959AF7CF9598F5CFEC
:0400F000F894FFCFB2
:00000001FF
