:1000000012C017C016C015C014C013C012C011C052
:1000100010C00FC00EC00DC00CC00BC00AC009C07C
:1000200008C007C006C011241FBECFEDCDBF50D001
:1000300069C0E6CF8C9A8D9A94989598B098C09A9A
:100040008098909A8E9ABA9A13BE83E080BF80B748
:10005000806880BF8EE786BF81E083BF089507C0B8
:10006000E9EFF0E03197F1F700C000008150811115
:10007000F7CF0895CF93811102C0CFEF01C0CBE439
:100080008C2FEDDF9498959A8C2FE9DF9598949AB0
:100090008C2FE5DF95989498CF91089591B321E046
:1000A00030E0082E01C0220F0A94EAF7611104C063
:1000B0002095292321BB0895922B91BB0895CF93BE
:1000C000C82F969ACCDF8C2FCADF9698CF910895CF
:1000D000B1DF80E0CFDF89E1F2DF81E0CBDF82E0DA
:1000E000BEDFB09905C0959A86B78F5F86BF01C005
:1000F0009598809905C0959A86B7815086BFEFCFB5
:080100009598EDCFF894FFCFB4
:00000001FF
